{
    "_format": "hh-sol-artifact-1",
    "contractName": "GambleswapPair",
    "sourceName": "contracts/GambleswapPair.sol",
    "abi": [
        {
            "inputs": [],
            "stateMutability": "nonpayable",
            "type": "constructor"
        },
        {
            "anonymous": false,
            "inputs": [
                {
                    "indexed": true,
                    "internalType": "address",
                    "name": "owner",
                    "type": "address"
                },
                {
                    "indexed": true,
                    "internalType": "address",
                    "name": "spender",
                    "type": "address"
                },
                {
                    "indexed": false,
                    "internalType": "uint256",
                    "name": "value",
                    "type": "uint256"
                }
            ],
            "name": "Approval",
            "type": "event"
        },
        {
            "anonymous": false,
            "inputs": [
                {
                    "indexed": true,
                    "internalType": "address",
                    "name": "sender",
                    "type": "address"
                },
                {
                    "indexed": false,
                    "internalType": "uint256",
                    "name": "amount0",
                    "type": "uint256"
                },
                {
                    "indexed": false,
                    "internalType": "uint256",
                    "name": "amount1",
                    "type": "uint256"
                },
                {
                    "indexed": true,
                    "internalType": "address",
                    "name": "to",
                    "type": "address"
                }
            ],
            "name": "Burn",
            "type": "event"
        },
        {
            "anonymous": false,
            "inputs": [
                {
                    "indexed": false,
                    "internalType": "uint112",
                    "name": "",
                    "type": "uint112"
                }
            ],
            "name": "MiningAmountChanged",
            "type": "event"
        },
        {
            "anonymous": false,
            "inputs": [
                {
                    "indexed": true,
                    "internalType": "address",
                    "name": "sender",
                    "type": "address"
                },
                {
                    "indexed": false,
                    "internalType": "uint256",
                    "name": "amount0",
                    "type": "uint256"
                },
                {
                    "indexed": false,
                    "internalType": "uint256",
                    "name": "amount1",
                    "type": "uint256"
                }
            ],
            "name": "Mint",
            "type": "event"
        },
        {
            "anonymous": false,
            "inputs": [
                {
                    "indexed": true,
                    "internalType": "address",
                    "name": "sender",
                    "type": "address"
                },
                {
                    "indexed": false,
                    "internalType": "uint256",
                    "name": "amount0In",
                    "type": "uint256"
                },
                {
                    "indexed": false,
                    "internalType": "uint256",
                    "name": "amount1In",
                    "type": "uint256"
                },
                {
                    "indexed": false,
                    "internalType": "uint256",
                    "name": "amount0Out",
                    "type": "uint256"
                },
                {
                    "indexed": false,
                    "internalType": "uint256",
                    "name": "amount1Out",
                    "type": "uint256"
                },
                {
                    "indexed": true,
                    "internalType": "address",
                    "name": "to",
                    "type": "address"
                }
            ],
            "name": "Swap",
            "type": "event"
        },
        {
            "anonymous": false,
            "inputs": [
                {
                    "indexed": false,
                    "internalType": "uint112",
                    "name": "reserve0",
                    "type": "uint112"
                },
                {
                    "indexed": false,
                    "internalType": "uint112",
                    "name": "reserve1",
                    "type": "uint112"
                }
            ],
            "name": "Sync",
            "type": "event"
        },
        {
            "anonymous": false,
            "inputs": [
                {
                    "indexed": true,
                    "internalType": "address",
                    "name": "from",
                    "type": "address"
                },
                {
                    "indexed": true,
                    "internalType": "address",
                    "name": "to",
                    "type": "address"
                },
                {
                    "indexed": false,
                    "internalType": "uint256",
                    "name": "value",
                    "type": "uint256"
                }
            ],
            "name": "Transfer",
            "type": "event"
        },
        {
            "inputs": [],
            "name": "DOMAIN_SEPARATOR",
            "outputs": [
                {
                    "internalType": "bytes32",
                    "name": "",
                    "type": "bytes32"
                }
            ],
            "stateMutability": "view",
            "type": "function"
        },
        {
            "inputs": [],
            "name": "GMBPERBLOCK",
            "outputs": [
                {
                    "internalType": "uint256",
                    "name": "",
                    "type": "uint256"
                }
            ],
            "stateMutability": "view",
            "type": "function"
        },
        {
            "inputs": [],
            "name": "MINIMUM_LIQUIDITY",
            "outputs": [
                {
                    "internalType": "uint256",
                    "name": "",
                    "type": "uint256"
                }
            ],
            "stateMutability": "view",
            "type": "function"
        },
        {
            "inputs": [],
            "name": "PERMIT_TYPEHASH",
            "outputs": [
                {
                    "internalType": "bytes32",
                    "name": "",
                    "type": "bytes32"
                }
            ],
            "stateMutability": "view",
            "type": "function"
        },
        {
            "inputs": [
                {
                    "internalType": "address",
                    "name": "",
                    "type": "address"
                },
                {
                    "internalType": "address",
                    "name": "",
                    "type": "address"
                }
            ],
            "name": "allowance",
            "outputs": [
                {
                    "internalType": "uint256",
                    "name": "",
                    "type": "uint256"
                }
            ],
            "stateMutability": "view",
            "type": "function"
        },
        {
            "inputs": [
                {
                    "internalType": "address",
                    "name": "spender",
                    "type": "address"
                },
                {
                    "internalType": "uint256",
                    "name": "value",
                    "type": "uint256"
                }
            ],
            "name": "approve",
            "outputs": [
                {
                    "internalType": "bool",
                    "name": "",
                    "type": "bool"
                }
            ],
            "stateMutability": "nonpayable",
            "type": "function"
        },
        {
            "inputs": [
                {
                    "internalType": "address",
                    "name": "",
                    "type": "address"
                }
            ],
            "name": "balanceOf",
            "outputs": [
                {
                    "internalType": "uint256",
                    "name": "",
                    "type": "uint256"
                }
            ],
            "stateMutability": "view",
            "type": "function"
        },
        {
            "inputs": [
                {
                    "internalType": "address",
                    "name": "to",
                    "type": "address"
                }
            ],
            "name": "burn",
            "outputs": [
                {
                    "internalType": "uint256",
                    "name": "amount0",
                    "type": "uint256"
                },
                {
                    "internalType": "uint256",
                    "name": "amount1",
                    "type": "uint256"
                }
            ],
            "stateMutability": "nonpayable",
            "type": "function"
        },
        {
            "inputs": [
                {
                    "internalType": "uint112",
                    "name": "amount",
                    "type": "uint112"
                }
            ],
            "name": "changeMintingAmount",
            "outputs": [],
            "stateMutability": "nonpayable",
            "type": "function"
        },
        {
            "inputs": [
                {
                    "internalType": "address",
                    "name": "user",
                    "type": "address"
                }
            ],
            "name": "claimGMB",
            "outputs": [],
            "stateMutability": "nonpayable",
            "type": "function"
        },
        {
            "inputs": [],
            "name": "decimals",
            "outputs": [
                {
                    "internalType": "uint8",
                    "name": "",
                    "type": "uint8"
                }
            ],
            "stateMutability": "view",
            "type": "function"
        },
        {
            "inputs": [],
            "name": "factory",
            "outputs": [
                {
                    "internalType": "address",
                    "name": "",
                    "type": "address"
                }
            ],
            "stateMutability": "view",
            "type": "function"
        },
        {
            "inputs": [],
            "name": "gambling",
            "outputs": [
                {
                    "internalType": "address",
                    "name": "",
                    "type": "address"
                }
            ],
            "stateMutability": "view",
            "type": "function"
        },
        {
            "inputs": [],
            "name": "getReserves",
            "outputs": [
                {
                    "internalType": "uint112",
                    "name": "_reserve0",
                    "type": "uint112"
                },
                {
                    "internalType": "uint112",
                    "name": "_reserve1",
                    "type": "uint112"
                },
                {
                    "internalType": "uint32",
                    "name": "_blockTimestampLast",
                    "type": "uint32"
                }
            ],
            "stateMutability": "view",
            "type": "function"
        },
        {
            "inputs": [],
            "name": "gmb",
            "outputs": [
                {
                    "internalType": "address",
                    "name": "",
                    "type": "address"
                }
            ],
            "stateMutability": "view",
            "type": "function"
        },
        {
            "inputs": [
                {
                    "internalType": "address",
                    "name": "_token0",
                    "type": "address"
                },
                {
                    "internalType": "address",
                    "name": "_token1",
                    "type": "address"
                },
                {
                    "internalType": "address",
                    "name": "_gmb",
                    "type": "address"
                },
                {
                    "internalType": "address",
                    "name": "_gambling",
                    "type": "address"
                },
                {
                    "internalType": "address",
                    "name": "_lending",
                    "type": "address"
                }
            ],
            "name": "initialize",
            "outputs": [],
            "stateMutability": "nonpayable",
            "type": "function"
        },
        {
            "inputs": [],
            "name": "kLast",
            "outputs": [
                {
                    "internalType": "uint256",
                    "name": "",
                    "type": "uint256"
                }
            ],
            "stateMutability": "view",
            "type": "function"
        },
        {
            "inputs": [],
            "name": "lending",
            "outputs": [
                {
                    "internalType": "address",
                    "name": "",
                    "type": "address"
                }
            ],
            "stateMutability": "view",
            "type": "function"
        },
        {
            "inputs": [
                {
                    "internalType": "address",
                    "name": "to",
                    "type": "address"
                }
            ],
            "name": "mint",
            "outputs": [
                {
                    "internalType": "uint256",
                    "name": "liquidity",
                    "type": "uint256"
                }
            ],
            "stateMutability": "nonpayable",
            "type": "function"
        },
        {
            "inputs": [],
            "name": "name",
            "outputs": [
                {
                    "internalType": "string",
                    "name": "",
                    "type": "string"
                }
            ],
            "stateMutability": "view",
            "type": "function"
        },
        {
            "inputs": [
                {
                    "internalType": "address",
                    "name": "",
                    "type": "address"
                }
            ],
            "name": "nonces",
            "outputs": [
                {
                    "internalType": "uint256",
                    "name": "",
                    "type": "uint256"
                }
            ],
            "stateMutability": "view",
            "type": "function"
        },
        {
            "inputs": [
                {
                    "internalType": "address",
                    "name": "owner",
                    "type": "address"
                },
                {
                    "internalType": "address",
                    "name": "spender",
                    "type": "address"
                },
                {
                    "internalType": "uint256",
                    "name": "value",
                    "type": "uint256"
                },
                {
                    "internalType": "uint256",
                    "name": "deadline",
                    "type": "uint256"
                },
                {
                    "internalType": "uint8",
                    "name": "v",
                    "type": "uint8"
                },
                {
                    "internalType": "bytes32",
                    "name": "r",
                    "type": "bytes32"
                },
                {
                    "internalType": "bytes32",
                    "name": "s",
                    "type": "bytes32"
                }
            ],
            "name": "permit",
            "outputs": [],
            "stateMutability": "nonpayable",
            "type": "function"
        },
        {
            "inputs": [],
            "name": "price0CumulativeLast",
            "outputs": [
                {
                    "internalType": "uint256",
                    "name": "",
                    "type": "uint256"
                }
            ],
            "stateMutability": "view",
            "type": "function"
        },
        {
            "inputs": [],
            "name": "price1CumulativeLast",
            "outputs": [
                {
                    "internalType": "uint256",
                    "name": "",
                    "type": "uint256"
                }
            ],
            "stateMutability": "view",
            "type": "function"
        },
        {
            "inputs": [
                {
                    "internalType": "address",
                    "name": "addr",
                    "type": "address"
                }
            ],
            "name": "setLending",
            "outputs": [],
            "stateMutability": "nonpayable",
            "type": "function"
        },
        {
            "inputs": [
                {
                    "internalType": "address",
                    "name": "to",
                    "type": "address"
                }
            ],
            "name": "skim",
            "outputs": [],
            "stateMutability": "nonpayable",
            "type": "function"
        },
        {
            "inputs": [
                {
                    "internalType": "uint256",
                    "name": "amount0Out",
                    "type": "uint256"
                },
                {
                    "internalType": "uint256",
                    "name": "amount1Out",
                    "type": "uint256"
                },
                {
                    "internalType": "address",
                    "name": "to",
                    "type": "address"
                },
                {
                    "internalType": "bytes",
                    "name": "data",
                    "type": "bytes"
                }
            ],
            "name": "swap",
            "outputs": [],
            "stateMutability": "nonpayable",
            "type": "function"
        },
        {
            "inputs": [],
            "name": "symbol",
            "outputs": [
                {
                    "internalType": "string",
                    "name": "",
                    "type": "string"
                }
            ],
            "stateMutability": "view",
            "type": "function"
        },
        {
            "inputs": [],
            "name": "sync",
            "outputs": [],
            "stateMutability": "nonpayable",
            "type": "function"
        },
        {
            "inputs": [],
            "name": "token0",
            "outputs": [
                {
                    "internalType": "address",
                    "name": "",
                    "type": "address"
                }
            ],
            "stateMutability": "view",
            "type": "function"
        },
        {
            "inputs": [],
            "name": "token1",
            "outputs": [
                {
                    "internalType": "address",
                    "name": "",
                    "type": "address"
                }
            ],
            "stateMutability": "view",
            "type": "function"
        },
        {
            "inputs": [],
            "name": "totalSupply",
            "outputs": [
                {
                    "internalType": "uint256",
                    "name": "",
                    "type": "uint256"
                }
            ],
            "stateMutability": "view",
            "type": "function"
        },
        {
            "inputs": [
                {
                    "internalType": "address",
                    "name": "to",
                    "type": "address"
                },
                {
                    "internalType": "uint256",
                    "name": "value",
                    "type": "uint256"
                }
            ],
            "name": "transfer",
            "outputs": [
                {
                    "internalType": "bool",
                    "name": "",
                    "type": "bool"
                }
            ],
            "stateMutability": "nonpayable",
            "type": "function"
        },
        {
            "inputs": [
                {
                    "internalType": "address",
                    "name": "from",
                    "type": "address"
                },
                {
                    "internalType": "address",
                    "name": "to",
                    "type": "address"
                },
                {
                    "internalType": "uint256",
                    "name": "value",
                    "type": "uint256"
                }
            ],
            "name": "transferFrom",
            "outputs": [
                {
                    "internalType": "bool",
                    "name": "",
                    "type": "bool"
                }
            ],
            "stateMutability": "nonpayable",
            "type": "function"
        },
        {
            "inputs": [
                {
                    "internalType": "address",
                    "name": "user",
                    "type": "address"
                }
            ],
            "name": "updateDebt",
            "outputs": [],
            "stateMutability": "nonpayable",
            "type": "function"
        }
    ],
    "bytecode": "0x6080604052600160145534801561001557600080fd5b50604080518082018252600a815269047616d626c65737761760b41b6020918201528151808301835260018152603160f81b9082015281517f8b73c3c69bb8fe3d512ecc4cf759cc79239f7b179b0ffacaa9a75d522b39400f818301527f858a5f2f03b8919b6244155edc584b34e34472235a759a61d4b13020def55ca3818401527fc89efdaa54c0f20c7adf612882df0950f5a951637e0307cdcb4c672f298b8bc66060820152617a6960808201523060a0808301919091528351808303909101815260c09091019092528151910120600355600680546001600160a01b03191633179055612dc08061010a6000396000f3fe608060405234801561001057600080fd5b50600436106102115760003560e01c806370a0823111610125578063a9059cbb116100ad578063c45a01551161007c578063c45a0155146104ed578063d21220a714610500578063d505accf14610513578063dd62ed3e14610526578063fff6cae91461055157600080fd5b8063a9059cbb146104ab578063ba9a7a56146104be578063bc25cf77146104c7578063bcc59949146104da57600080fd5b806389afcb44116100f457806389afcb441461042357806395d89b411461044b57806395e97eee14610472578063a2d7861014610485578063a696021c1461049857600080fd5b806370a08231146103c75780637464fc3d146103e757806376dfd389146103f05780637ecebe001461040357600080fd5b80631bb43eef116101a85780633644e515116101775780633644e51514610386578063445a1d531461038f5780635909c0d5146103a25780635a3d5493146103ab5780636a627842146103b457600080fd5b80631bb43eef1461032957806323b872dd1461033257806330adf81f14610345578063313ce5671461036c57600080fd5b80630dfe1681116101e45780630dfe1681146102c15780631459457a146102ec578063180fde07146102ff57806318160ddd1461031257600080fd5b8063022c0d9f1461021657806306fdde031461022b5780630902f1ac1461026a578063095ea7b31461029e575b600080fd5b61022961022436600461286d565b610559565b005b6102546040518060400160405280600a815260200169047616d626c65737761760b41b81525081565b6040516102619190612933565b60405180910390f35b610272610a65565b604080516001600160701b03948516815293909216602084015263ffffffff1690820152606001610261565b6102b16102ac366004612966565b610a8f565b6040519015158152602001610261565b6007546102d4906001600160a01b031681565b6040516001600160a01b039091168152602001610261565b6102296102fa366004612992565b610aa6565b61022961030d366004612a03565b610b3d565b61031b60005481565b604051908152602001610261565b61031b600c5481565b6102b1610340366004612a20565b610c06565b61031b7f6e71edae12b1b97f4d1f60370fef10105fa2faae0126114a169c64845d6126c981565b610374601281565b60405160ff9091168152602001610261565b61031b60035481565b600b546102d4906001600160a01b031681565b61031b60115481565b61031b60125481565b61031b6103c2366004612a03565b610c9a565b61031b6103d5366004612a03565b60016020526000908152604090205481565b61031b60135481565b6102296103fe366004612a61565b6110ce565b61031b610411366004612a03565b60046020526000908152604090205481565b610436610431366004612a03565b6111ba565b60408051928352602083019190915201610261565b610254604051806040016040528060088152602001670474d42202d204c560c41b81525081565b6009546102d4906001600160a01b031681565b610229610493366004612a03565b6115df565b6102296104a6366004612a03565b6116c7565b6102b16104b9366004612966565b611708565b61031b6103e881565b6102296104d5366004612a03565b611715565b600a546102d4906001600160a01b031681565b6006546102d4906001600160a01b031681565b6008546102d4906001600160a01b031681565b610229610521366004612a8a565b611829565b61031b610534366004612b01565b600260209081526000928352604080842090915290825290205481565b610229611a3e565b6014546001146105845760405162461bcd60e51b815260040161057b90612b3a565b60405180910390fd5b6000601455841515806105975750600084115b6105f25760405162461bcd60e51b815260206004820152602660248201527f47616d626c65737761703a20494e53554646494349454e545f4f55545055545f604482015265105353d5539560d21b606482015260840161057b565b6000806105fd610a65565b5091509150816001600160701b0316871080156106225750806001600160701b031686105b6106795760405162461bcd60e51b815260206004820152602260248201527f47616d626c65737761703a20494e53554646494349454e545f4c495155494449604482015261545960f01b606482015260840161057b565b60075460085460009182916001600160a01b039182169190811690891682148015906106b75750806001600160a01b0316896001600160a01b031614155b6106fc5760405162461bcd60e51b815260206004820152601660248201527547616d626c65737761703a20494e56414c49445f544f60501b604482015260640161057b565b8a1561070d5761070d828a8d611b62565b891561071e5761071e818a8c611b62565b861561078b5760405163c28f1a3d60e01b81526001600160a01b038a169063c28f1a3d906107589033908f908f908e908e90600401612b66565b600060405180830381600087803b15801561077257600080fd5b505af1158015610786573d6000803e3d6000fd5b505050505b6040516370a0823160e01b81523060048201526001600160a01b038316906370a0823190602401602060405180830381865afa1580156107cf573d6000803e3d6000fd5b505050506040513d601f19601f820116820180604052508101906107f39190612bb2565b6040516370a0823160e01b81523060048201529094506001600160a01b038216906370a0823190602401602060405180830381865afa15801561083a573d6000803e3d6000fd5b505050506040513d601f19601f8201168201806040525081019061085e9190612bb2565b92505050600089856001600160701b03166108799190612be1565b83116108865760006108a3565b6108998a6001600160701b038716612be1565b6108a39084612be1565b905060006108ba8a6001600160701b038716612be1565b83116108c75760006108e4565b6108da8a6001600160701b038716612be1565b6108e49084612be1565b905060008211806108f55750600081115b61094f5760405162461bcd60e51b815260206004820152602560248201527f47616d626c65737761703a20494e53554646494349454e545f494e5055545f416044820152641353d5539560da1b606482015260840161057b565b600061097161095f846003611cad565b61096b876103e8611cad565b90611d14565b9050600061098361095f846003611cad565b90506109a8620f42406109a26001600160701b038b8116908b16611cad565b90611cad565b6109b28383611cad565b10156109f05760405162461bcd60e51b815260206004820152600d60248201526c47616d626c65737761703a204b60981b604482015260640161057b565b50506109fe84848888611d6a565b60408051838152602081018390529081018c9052606081018b90526001600160a01b038a169033907fd78ad95fa46c994b6551d0da85fc275fe613ce37657fb8d5e3d130840159d8229060800160405180910390a350506001601455505050505050505050565b6010546001600160701b0380821692600160701b830490911691600160e01b900463ffffffff1690565b6000610a9c338484611f57565b5060015b92915050565b6006546001600160a01b03163314610ad05760405162461bcd60e51b815260040161057b90612bf8565b600780546001600160a01b03199081166001600160a01b039788161790915560088054821695871695909517909455600a8054851693861693909317909255600b805484169185169190911790556009805490921692169190911790556000600d819055600e5543600f55565b600660009054906101000a90046001600160a01b03166001600160a01b031663094b74156040518163ffffffff1660e01b8152600401602060405180830381865afa158015610b90573d6000803e3d6000fd5b505050506040513d601f19601f82011682018060405250810190610bb49190612c27565b6001600160a01b0316336001600160a01b031614610be45760405162461bcd60e51b815260040161057b90612bf8565b600980546001600160a01b0319166001600160a01b0392909216919091179055565b6001600160a01b038316600090815260026020908152604080832033845290915281205460001914610c85576001600160a01b0384166000908152600260209081526040808320338452909152902054610c609083611d14565b6001600160a01b03851660009081526002602090815260408083203384529091529020555b610c90848484611fb8565b5060019392505050565b6000805415610d54576000610cd8600f5443610cb69190612be1565b600c54610cc39190612c44565b600d54600054610cd291611cad565b90612384565b905060005481610ce89190612c79565b600d5560408051808201909152600e81526d63616c6c696e672075706461746560901b6020820152610d19906123d9565b610d24600c5461241f565b610d3a600f5443610d359190612be1565b61241f565b610d45600d5461241f565b610d4e8161241f565b5043600f555b6001600160a01b038216600090815260016020526040902054829015610d7d57610d7d81612464565b601454600114610d9f5760405162461bcd60e51b815260040161057b90612b3a565b6000601481905580610daf610a65565b506007546040516370a0823160e01b81523060048201529294509092506000916001600160a01b03909116906370a0823190602401602060405180830381865afa158015610e01573d6000803e3d6000fd5b505050506040513d601f19601f82011682018060405250810190610e259190612bb2565b6008546040516370a0823160e01b81523060048201529192506000916001600160a01b03909116906370a0823190602401602060405180830381865afa158015610e73573d6000803e3d6000fd5b505050506040513d601f19601f82011682018060405250810190610e979190612bb2565b90506000610eae836001600160701b038716611d14565b90506000610ec5836001600160701b038716611d14565b90506000610ed38787612531565b60008054919250819003610f0d57610ef96103e861096b610ef48787611cad565b612668565b9950610f0860006103e86126d8565b610f54565b610f516001600160701b038916610f248684611cad565b610f2e9190612c79565b6001600160701b038916610f428685611cad565b610f4c9190612c79565b612767565b99505b60008a11610fb65760405162461bcd60e51b815260206004820152602960248201527f47616d626c65737761703a20494e53554646494349454e545f4c495155494449604482015268151657d3525395115160ba1b606482015260840161057b565b6001600160a01b038b16600090815260016020526040902054610fd98c8c6126d8565b6001600160a01b038c1660009081526005602052604081206001908101805460ff19169091179055819003611048576001600160a01b038c16600090815260016020526040902054600d5461102e9190612c44565b6001600160a01b038d166000908152600560205260409020555b61105487878b8b611d6a565b821561107e5760105461107a906001600160701b0380821691600160701b900416611cad565b6013555b604080518681526020810186905233917f4c209b5fc8ad50758f13e2e1088ba56a560dff690a1c6fef26394f4c03821c4f910160405180910390a250506001601455509698975050505050505050565b600660009054906101000a90046001600160a01b03166001600160a01b031663094b74156040518163ffffffff1660e01b8152600401602060405180830381865afa158015611121573d6000803e3d6000fd5b505050506040513d601f19601f820116820180604052508101906111459190612c27565b6001600160a01b0316336001600160a01b0316146111755760405162461bcd60e51b815260040161057b90612bf8565b6001600160701b038116600c8190556040519081527fee4a65f977f60a9af26ed264e1506a4b3af0822713605a86b1b9a68fd85972a49060200160405180910390a150565b6000806000546000146112515760006111da600f5443610cb69190612be1565b9050600054816111ea9190612c79565b600d5560408051808201909152600e81526d63616c6c696e672075706461746560901b602082015261121b906123d9565b611226600c5461241f565b611237600f5443610d359190612be1565b611242600d5461241f565b61124b8161241f565b5043600f555b6001600160a01b03831660009081526001602052604090205483901561127a5761127a81612464565b60145460011461129c5760405162461bcd60e51b815260040161057b90612b3a565b60006014819055806112ac610a65565b506007546008546040516370a0823160e01b81523060048201529395509193506001600160a01b039081169291169060009083906370a0823190602401602060405180830381865afa158015611306573d6000803e3d6000fd5b505050506040513d601f19601f8201168201806040525081019061132a9190612bb2565b6040516370a0823160e01b81523060048201529091506000906001600160a01b038416906370a0823190602401602060405180830381865afa158015611374573d6000803e3d6000fd5b505050506040513d601f19601f820116820180604052508101906113989190612bb2565b306000908152600160205260408120549192506113b58888612531565b600054909150806113c68487611cad565b6113d09190612c79565b9b50806113dd8486611cad565b6113e79190612c79565b9a5060008c1180156113f9575060008b115b6114575760405162461bcd60e51b815260206004820152602960248201527f47616d626c65737761703a20494e53554646494349454e545f4c495155494449604482015268151657d0955493915160ba1b606482015260840161057b565b611461308461277f565b61146c878e8e611b62565b611477868e8d611b62565b6040516370a0823160e01b81523060048201526001600160a01b038816906370a0823190602401602060405180830381865afa1580156114bb573d6000803e3d6000fd5b505050506040513d601f19601f820116820180604052508101906114df9190612bb2565b6040516370a0823160e01b81523060048201529095506001600160a01b038716906370a0823190602401602060405180830381865afa158015611526573d6000803e3d6000fd5b505050506040513d601f19601f8201168201806040525081019061154a9190612bb2565b935061155885858b8b611d6a565b81156115825760105461157e906001600160701b0380821691600160701b900416611cad565b6013555b604080518d8152602081018d90526001600160a01b038f169133917fdccd412f0b1252819cb1fd330b93224ca42612892bb3f4f789976e6d81936496910160405180910390a3505050505050505050600160148190555050915091565b6014546001146116015760405162461bcd60e51b815260040161057b90612b3a565b600060148190555415611698576000611621600f5443610cb69190612be1565b9050600054816116319190612c79565b600d5560408051808201909152600e81526d63616c6c696e672075706461746560901b6020820152611662906123d9565b61166d600c5461241f565b61167e600f5443610d359190612be1565b611689600d5461241f565b6116928161241f565b5043600f555b6001600160a01b038116600090815260016020526040902054156116bf576116bf81612464565b506001601455565b6001600160a01b038116600090815260016020526040902054600d546116ec91611cad565b6001600160a01b03909116600090815260056020526040902055565b6000610a9c338484611fb8565b6014546001146117375760405162461bcd60e51b815260040161057b90612b3a565b60006014556007546008546010546040516370a0823160e01b81523060048201526001600160a01b0393841693909216916117d291849186916117cd916001600160701b039091169084906370a08231906024015b602060405180830381865afa1580156117a9573d6000803e3d6000fd5b505050506040513d601f19601f8201168201806040525081019061096b9190612bb2565b611b62565b6010546040516370a0823160e01b815230600482015261181f91839186916117cd91600160701b9091046001600160701b0316906001600160a01b038516906370a082319060240161178c565b5050600160145550565b4284101561186f5760405162461bcd60e51b815260206004820152601360248201527211d85b589b195cddd85c0e8811561412549151606a1b604482015260640161057b565b6003546001600160a01b038816600090815260046020526040812080549192917f6e71edae12b1b97f4d1f60370fef10105fa2faae0126114a169c64845d6126c9918b918b918b9190876118c283612c8d565b909155506040805160208101969096526001600160a01b0394851690860152929091166060840152608083015260a082015260c0810187905260e0016040516020818303038152906040528051906020012060405160200161193b92919061190160f01b81526002810192909252602282015260420190565b60408051601f198184030181528282528051602091820120600080855291840180845281905260ff88169284019290925260608301869052608083018590529092509060019060a0016020604051602081039080840390855afa1580156119a6573d6000803e3d6000fd5b5050604051601f1901519150506001600160a01b038116158015906119dc5750886001600160a01b0316816001600160a01b0316145b611a285760405162461bcd60e51b815260206004820152601d60248201527f47616d626c65737761703a20494e56414c49445f5349474e4154555245000000604482015260640161057b565b611a33898989611f57565b505050505050505050565b601454600114611a605760405162461bcd60e51b815260040161057b90612b3a565b60006014556007546040516370a0823160e01b8152306004820152611b5b916001600160a01b0316906370a0823190602401602060405180830381865afa158015611aaf573d6000803e3d6000fd5b505050506040513d601f19601f82011682018060405250810190611ad39190612bb2565b6008546040516370a0823160e01b81523060048201526001600160a01b03909116906370a0823190602401602060405180830381865afa158015611b1b573d6000803e3d6000fd5b505050506040513d601f19601f82011682018060405250810190611b3f9190612bb2565b6010546001600160701b0380821691600160701b900416611d6a565b6001601455565b604080518082018252601981527f7472616e7366657228616464726573732c75696e74323536290000000000000060209182015281516001600160a01b0385811660248301526044808301869052845180840390910181526064909201845291810180516001600160e01b031663a9059cbb60e01b17905291516000928392871691611bee9190612ca6565b6000604051808303816000865af19150503d8060008114611c2b576040519150601f19603f3d011682016040523d82523d6000602084013e611c30565b606091505b5091509150818015611c5a575080511580611c5a575080806020019051810190611c5a9190612cc2565b611ca65760405162461bcd60e51b815260206004820152601b60248201527f47616d626c65737761703a205452414e534645525f4641494c45440000000000604482015260640161057b565b5050505050565b6000811580611cd157508282611cc38183612c44565b9250611ccf9083612c79565b145b610aa05760405162461bcd60e51b815260206004820152601460248201527364732d6d6174682d6d756c2d6f766572666c6f7760601b604482015260640161057b565b600082611d218382612be1565b9150811115610aa05760405162461bcd60e51b815260206004820152601560248201527464732d6d6174682d7375622d756e646572666c6f7760581b604482015260640161057b565b6001600160701b038411801590611d8857506001600160701b038311155b611dcb5760405162461bcd60e51b815260206004820152601460248201527347616d626c65737761703a204f564552464c4f5760601b604482015260640161057b565b6000611ddc64010000000042612ce4565b601054909150600090611dfc90600160e01b900463ffffffff1683612cf8565b905060008163ffffffff16118015611e1c57506001600160701b03841615155b8015611e3057506001600160701b03831615155b15611ebf578063ffffffff16611e5885611e4986612809565b6001600160e01b031690612822565b6001600160e01b0316611e6b9190612c44565b60116000828254611e7c9190612d1d565b909155505063ffffffff8116611e9584611e4987612809565b6001600160e01b0316611ea89190612c44565b60126000828254611eb99190612d1d565b90915550505b6010805463ffffffff8416600160e01b026001600160e01b036001600160701b03898116600160701b9081026001600160e01b03199095168c83161794909417918216831794859055604080519382169282169290921783529290930490911660208201527f1c411e9a96e071241c2f21f7726b17ae89e3cab4c78be50e062b03a9fffbbad1910160405180910390a1505050505050565b6001600160a01b0383811660008181526002602090815260408083209487168084529482529182902085905590518481527f8c5be1e5ebec7d5bd14f71427d1e84f3dd0314c0f7b2291e5b200ac8c7c3b925910160405180910390a3505050565b6000306001600160a01b03166395e97eee6040518163ffffffff1660e01b8152600401602060405180830381865afa158015611ff8573d6000803e3d6000fd5b505050506040513d601f19601f8201168201806040525081019061201c9190612c27565b90506000306001600160a01b031663445a1d536040518163ffffffff1660e01b8152600401602060405180830381865afa15801561205e573d6000803e3d6000fd5b505050506040513d601f19601f820116820180604052508101906120829190612c27565b9050846001600160a01b0316826001600160a01b031614806120b55750836001600160a01b0316826001600160a01b0316145b806120d15750846001600160a01b0316816001600160a01b0316145b806120ed5750836001600160a01b0316816001600160a01b0316145b15612162576001600160a01b0385166000908152600160205260409020546121159084611d14565b6001600160a01b0380871660009081526001602052604080822093909355908616815220546121449084612384565b6001600160a01b038516600090815260016020526040902055612330565b604051630a2d786160e41b81526001600160a01b0386166004820152309063a2d7861090602401600060405180830381600087803b1580156121a357600080fd5b505af11580156121b7573d6000803e3d6000fd5b5050604051630a2d786160e41b81526001600160a01b038716600482015230925063a2d786109150602401600060405180830381600087803b1580156121fc57600080fd5b505af1158015612210573d6000803e3d6000fd5b5050506001600160a01b038616600090815260016020526040902054612237915084611d14565b6001600160a01b0380871660009081526001602052604080822093909355908616815220546122669084612384565b6001600160a01b03858116600090815260016020526040908190209290925590516329a5808760e21b81529086166004820152309063a696021c90602401600060405180830381600087803b1580156122be57600080fd5b505af11580156122d2573d6000803e3d6000fd5b50506040516329a5808760e21b81526001600160a01b038716600482015230925063a696021c9150602401600060405180830381600087803b15801561231757600080fd5b505af115801561232b573d6000803e3d6000fd5b505050505b836001600160a01b0316856001600160a01b03167fddf252ad1be2c89b69c2b068fc378daa952ba7f163c4a11628f55a4df523b3ef8560405161237591815260200190565b60405180910390a35050505050565b6000826123918382612d1d565b9150811015610aa05760405162461bcd60e51b815260206004820152601460248201527364732d6d6174682d6164642d6f766572666c6f7760601b604482015260640161057b565b61241c816040516024016123ed9190612933565b60408051601f198184030181529190526020810180516001600160e01b031663104c13eb60e21b179052612837565b50565b61241c8160405160240161243591815260200190565b60408051601f198184030181529190526020810180516001600160e01b031663f5b1bba960e01b179052612837565b6001600160a01b03811660009081526001602052604081205490036124865750565b6001600160a01b0381166000908152600560209081526040808320546001909252822054600d546124bc929161096b9190611cad565b90506124c7826116c7565b600a546040516340c10f1960e01b81526001600160a01b03848116600483015260248201849052909116906340c10f1990604401600060405180830381600087803b15801561251557600080fd5b505af1158015612529573d6000803e3d6000fd5b505050505050565b600080600660009054906101000a90046001600160a01b03166001600160a01b031663017e7e586040518163ffffffff1660e01b8152600401602060405180830381865afa158015612587573d6000803e3d6000fd5b505050506040513d601f19601f820116820180604052508101906125ab9190612c27565b6013546001600160a01b03821615801594509192509061265457801561264f5760006125e6610ef46001600160701b03888116908816611cad565b905060006125f383612668565b90508082111561264c57600061261561260c8484611d14565b60005490611cad565b9050600061262883610cd2866005611cad565b905060006126368284612c79565b905080156126485761264887826126d8565b5050505b50505b612660565b80156126605760006013555b505092915050565b600060038211156126c95750806000612682600283612c79565b61268d906001612d1d565b90505b818110156126c3579050806002816126a88186612c79565b6126b29190612d1d565b6126bc9190612c79565b9050612690565b50919050565b81156126d3575060015b919050565b6000546126e59082612384565b60009081556001600160a01b03831681526001602052604090205461270a9082612384565b6001600160a01b0383166000818152600160205260408082209390935591519091907fddf252ad1be2c89b69c2b068fc378daa952ba7f163c4a11628f55a4df523b3ef9061275b9085815260200190565b60405180910390a35050565b60008183106127765781612778565b825b9392505050565b6001600160a01b0382166000908152600160205260409020546127a29082611d14565b6001600160a01b038316600090815260016020526040812091909155546127c99082611d14565b60009081556040518281526001600160a01b038416907fddf252ad1be2c89b69c2b068fc378daa952ba7f163c4a11628f55a4df523b3ef9060200161275b565b6000610aa0600160701b6001600160701b038416612d35565b60006127786001600160701b03831684612d64565b80516a636f6e736f6c652e6c6f67602083016000808483855afa5050505050565b6001600160a01b038116811461241c57600080fd5b60008060008060006080868803121561288557600080fd5b8535945060208601359350604086013561289e81612858565b9250606086013567ffffffffffffffff808211156128bb57600080fd5b818801915088601f8301126128cf57600080fd5b8135818111156128de57600080fd5b8960208285010111156128f057600080fd5b9699959850939650602001949392505050565b60005b8381101561291e578181015183820152602001612906565b8381111561292d576000848401525b50505050565b6020815260008251806020840152612952816040850160208701612903565b601f01601f19169190910160400192915050565b6000806040838503121561297957600080fd5b823561298481612858565b946020939093013593505050565b600080600080600060a086880312156129aa57600080fd5b85356129b581612858565b945060208601356129c581612858565b935060408601356129d581612858565b925060608601356129e581612858565b915060808601356129f581612858565b809150509295509295909350565b600060208284031215612a1557600080fd5b813561277881612858565b600080600060608486031215612a3557600080fd5b8335612a4081612858565b92506020840135612a5081612858565b929592945050506040919091013590565b600060208284031215612a7357600080fd5b81356001600160701b038116811461277857600080fd5b600080600080600080600060e0888a031215612aa557600080fd5b8735612ab081612858565b96506020880135612ac081612858565b95506040880135945060608801359350608088013560ff81168114612ae457600080fd5b9699959850939692959460a0840135945060c09093013592915050565b60008060408385031215612b1457600080fd5b8235612b1f81612858565b91506020830135612b2f81612858565b809150509250929050565b60208082526012908201527111d85b589b195cddd85c0e881313d0d2d15160721b604082015260600190565b60018060a01b038616815284602082015283604082015260806060820152816080820152818360a0830137600081830160a090810191909152601f909201601f19160101949350505050565b600060208284031215612bc457600080fd5b5051919050565b634e487b7160e01b600052601160045260246000fd5b600082821015612bf357612bf3612bcb565b500390565b60208082526015908201527423b0b6b13632b9bbb0b81d102327a92124a22222a760591b604082015260600190565b600060208284031215612c3957600080fd5b815161277881612858565b6000816000190483118215151615612c5e57612c5e612bcb565b500290565b634e487b7160e01b600052601260045260246000fd5b600082612c8857612c88612c63565b500490565b600060018201612c9f57612c9f612bcb565b5060010190565b60008251612cb8818460208701612903565b9190910192915050565b600060208284031215612cd457600080fd5b8151801515811461277857600080fd5b600082612cf357612cf3612c63565b500690565b600063ffffffff83811690831681811015612d1557612d15612bcb565b039392505050565b60008219821115612d3057612d30612bcb565b500190565b60006001600160e01b0382811684821681151582840482111615612d5b57612d5b612bcb565b02949350505050565b60006001600160e01b0383811680612d7e57612d7e612c63565b9216919091049291505056fea2646970667358221220e4256db70dadee7db3291207bb834bead1f98357b985c3aab467d9b55b8e1b6764736f6c634300080d0033",
    "linkReferences": {},
    "deployedLinkReferences": {}
}