{
  "_format": "hh-sol-artifact-1",
  "contractName": "GambleswapLPLending",
  "sourceName": "contracts/GambleswapLPLending.sol",
  "abi": [
    {
      "inputs": [
        {
          "internalType": "address",
          "name": "gmbAddress",
          "type": "address"
        },
        {
          "internalType": "address",
          "name": "gamblingAddress",
          "type": "address"
        }
      ],
      "stateMutability": "nonpayable",
      "type": "constructor"
    },
    {
      "anonymous": false,
      "inputs": [
        {
          "indexed": true,
          "internalType": "address",
          "name": "",
          "type": "address"
        },
        {
          "indexed": true,
          "internalType": "address",
          "name": "",
          "type": "address"
        },
        {
          "indexed": false,
          "internalType": "uint256",
          "name": "",
          "type": "uint256"
        }
      ],
      "name": "Borrow",
      "type": "event"
    },
    {
      "anonymous": false,
      "inputs": [
        {
          "indexed": true,
          "internalType": "address",
          "name": "",
          "type": "address"
        },
        {
          "indexed": true,
          "internalType": "address",
          "name": "",
          "type": "address"
        },
        {
          "indexed": false,
          "internalType": "uint256",
          "name": "",
          "type": "uint256"
        }
      ],
      "name": "ExitLend",
      "type": "event"
    },
    {
      "anonymous": false,
      "inputs": [
        {
          "indexed": true,
          "internalType": "address",
          "name": "",
          "type": "address"
        },
        {
          "indexed": true,
          "internalType": "address",
          "name": "",
          "type": "address"
        },
        {
          "indexed": false,
          "internalType": "uint256",
          "name": "",
          "type": "uint256"
        }
      ],
      "name": "Lend",
      "type": "event"
    },
    {
      "anonymous": false,
      "inputs": [
        {
          "indexed": false,
          "internalType": "uint256",
          "name": "",
          "type": "uint256"
        }
      ],
      "name": "Refresh",
      "type": "event"
    },
    {
      "anonymous": false,
      "inputs": [
        {
          "indexed": true,
          "internalType": "address",
          "name": "",
          "type": "address"
        },
        {
          "indexed": true,
          "internalType": "address",
          "name": "",
          "type": "address"
        }
      ],
      "name": "Return",
      "type": "event"
    },
    {
      "anonymous": false,
      "inputs": [
        {
          "indexed": true,
          "internalType": "address",
          "name": "",
          "type": "address"
        }
      ],
      "name": "newPoolAdded",
      "type": "event"
    },
    {
      "inputs": [
        {
          "internalType": "address",
          "name": "addr",
          "type": "address"
        },
        {
          "internalType": "uint256",
          "name": "interest",
          "type": "uint256"
        }
      ],
      "name": "addPool",
      "outputs": [],
      "stateMutability": "nonpayable",
      "type": "function"
    },
    {
      "inputs": [
        {
          "internalType": "address",
          "name": "borrower",
          "type": "address"
        }
      ],
      "name": "borrow",
      "outputs": [],
      "stateMutability": "nonpayable",
      "type": "function"
    },
    {
      "inputs": [
        {
          "internalType": "uint256",
          "name": "index",
          "type": "uint256"
        }
      ],
      "name": "exitLendingPool",
      "outputs": [],
      "stateMutability": "nonpayable",
      "type": "function"
    },
    {
      "inputs": [],
      "name": "getCheapestPool",
      "outputs": [
        {
          "internalType": "uint256",
          "name": "res",
          "type": "uint256"
        }
      ],
      "stateMutability": "view",
      "type": "function"
    },
    {
      "inputs": [
        {
          "internalType": "uint256",
          "name": "index",
          "type": "uint256"
        },
        {
          "internalType": "uint256",
          "name": "amount",
          "type": "uint256"
        }
      ],
      "name": "lend",
      "outputs": [],
      "stateMutability": "nonpayable",
      "type": "function"
    },
    {
      "inputs": [
        {
          "internalType": "uint256",
          "name": "",
          "type": "uint256"
        },
        {
          "internalType": "address",
          "name": "",
          "type": "address"
        }
      ],
      "name": "lenders",
      "outputs": [
        {
          "internalType": "uint256",
          "name": "amount",
          "type": "uint256"
        },
        {
          "internalType": "uint256",
          "name": "debtPerShare",
          "type": "uint256"
        },
        {
          "internalType": "bool",
          "name": "valid",
          "type": "bool"
        }
      ],
      "stateMutability": "view",
      "type": "function"
    },
    {
      "inputs": [
        {
          "internalType": "uint256",
          "name": "",
          "type": "uint256"
        }
      ],
      "name": "pools",
      "outputs": [
        {
          "internalType": "address",
          "name": "lpTokenAddress",
          "type": "address"
        },
        {
          "internalType": "uint256",
          "name": "lendersNum",
          "type": "uint256"
        },
        {
          "internalType": "uint256",
          "name": "totalLiquidity",
          "type": "uint256"
        },
        {
          "internalType": "uint256",
          "name": "totalLiquidityBorrowed",
          "type": "uint256"
        },
        {
          "internalType": "uint256",
          "name": "interestPerShare",
          "type": "uint256"
        },
        {
          "internalType": "uint256",
          "name": "interestPerBorrow",
          "type": "uint256"
        },
        {
          "internalType": "bool",
          "name": "valid",
          "type": "bool"
        }
      ],
      "stateMutability": "view",
      "type": "function"
    },
    {
      "inputs": [],
      "name": "poolsNumber",
      "outputs": [
        {
          "internalType": "uint256",
          "name": "",
          "type": "uint256"
        }
      ],
      "stateMutability": "view",
      "type": "function"
    },
    {
      "inputs": [],
      "name": "refresh",
      "outputs": [],
      "stateMutability": "nonpayable",
      "type": "function"
    }
  ],
  "bytecode": "0x608060405234801561001057600080fd5b50604051610cee380380610cee83398101604081905261002f91610087565b600380546001600160a01b03199081163317909155600480546001600160a01b03948516908316179055600580549290931691161790556100ba565b80516001600160a01b038116811461008257600080fd5b919050565b6000806040838503121561009a57600080fd5b6100a38361006b565b91506100b16020840161006b565b90509250929050565b610c25806100c96000396000f3fe608060405234801561001057600080fd5b50600436106100935760003560e01c8063ac4afa3811610066578063ac4afa381461012e578063df6e01a9146101c7578063e9a87a9c146101dd578063f8ac93e8146101e6578063fbd89650146101ee57600080fd5b806332a9caba146100985780633f0ead02146100ad5780639110df85146100c0578063a59a6dc5146100d3575b600080fd5b6100ab6100a6366004610a20565b610201565b005b6100ab6100bb366004610a4a565b61030a565b6100ab6100ce366004610a6c565b6104f4565b61010c6100e1366004610a8e565b6001602081815260009384526040808520909152918352912080549181015460029091015460ff1683565b6040805193845260208401929092521515908201526060015b60405180910390f35b61018661013c366004610aba565b60006020819052908152604090208054600182015460028301546003840154600485015460058601546006909601546001600160a01b039095169593949293919290919060ff1687565b604080516001600160a01b0390981688526020880196909652948601939093526060850191909152608084015260a0830152151560c082015260e001610125565b6101cf61074c565b604051908152602001610125565b6101cf60025481565b6100ab610778565b6100ab6101fc366004610aba565b610809565b6003546001600160a01b031633146102605760405162461bcd60e51b815260206004820152601760248201527f6f6e6c792061646d696e2063616e20646f20746869732e00000000000000000060448201526064015b60405180910390fd5b6002805490600061027083610ae9565b90915550506002805460009081526020819052604080822080546001600160a01b0319166001600160a01b03871690811790915583548352818320600190810184905584548452828420850184905584548452828420600601805460ff1916909117905592548252808220600501849055517f0ccb0ce21992d10310132ea988be46f0b632e2052c3bc827cf0f7ee1cac282e29190a25050565b6005546001600160a01b031633146103345760405162461bcd60e51b815260040161025790610b02565b600080600061034161074c565b81526020808201929092526040908101600020805482516318160ddd60e01b815292519194506001600160a01b0316926127109284926318160ddd926004808401939192918290030181865afa15801561039f573d6000803e3d6000fd5b505050506040513d601f19601f820116820180604052508101906103c39190610b44565b6103cd9190610b5d565b8260030160008282546103e09190610b7f565b90915550506004805460058401546040516323b872dd60e01b81526001600160a01b038781169482019490945230602482015260448101919091529116906323b872dd906064016020604051808303816000875af1158015610446573d6000803e3d6000fd5b505050506040513d601f19601f8201168201806040525081019061046a9190610b97565b50600282015460058301546104849064e8d4a51000610bb9565b61048e9190610b5d565b8260040160008282546104a19190610b7f565b9091555050815460058301546040519081526001600160a01b03918216918516907f312a5e5e1079f5dda4e95dbbd0b908b291fd5b992ef22073643ab691572c5b529060200160405180910390a3505050565b6002548211158015610507575060018210155b6105535760405162461bcd60e51b815260206004820152601760248201527f706f6f6c20696e646578206e6f7420696e2072616e67650000000000000000006044820152606401610257565b6000828152602081815260408083206001835281842033808652935292819020835491516323b872dd60e01b8152600481019390935230602484015260448301859052916001600160a01b03909116906323b872dd906064016020604051808303816000875af11580156105cb573d6000803e3d6000fd5b505050506040513d601f19601f820116820180604052508101906105ef9190610b97565b50600281015460ff16156106b257600480546001830154918401546001600160a01b039091169163a9059cbb91339161062791610bd8565b84546106339190610bb9565b6040516001600160e01b031960e085901b1681526001600160a01b03909216600483015260248201526044016020604051808303816000875af115801561067e573d6000803e3d6000fd5b505050506040513d601f19601f820116820180604052508101906106a29190610b97565b50600482015460018201556106ce565b60028101805460ff191660019081179091556004830154908201555b828160000160008282546106e29190610b7f565b92505081905550828260020160008282546106fd9190610b7f565b909155505081546040518481526001600160a01b039091169033907f11dd72a5d477527ee1cbe309212bb368745a98cf1dc3befcac7eef4988a957c2906020015b60405180910390a350505050565b6001805b6002548110156107745760008181526020528061076c81610ae9565b915050610750565b5090565b6005546001600160a01b031633146107a25760405162461bcd60e51b815260040161025790610b02565b60015b6002548110156107d357600081815260208190526040812060030155806107cb81610ae9565b9150506107a5565b506040514381527f271feed3dbf0927c7e763c8bd90c85f0d86a4736278f937a9ac857452c71a9d19060200160405180910390a1565b60008181526020818152604080832060018352818420338552909252909120600281015460ff166108885760405162461bcd60e51b8152602060048201526024808201527f796f75277665206e65766572206a6f696e6564207468697320706f6f6c206265604482015263666f726560e01b6064820152608401610257565b60008160010154836004015461089e9190610bd8565b82546108aa9190610bb9565b6004549091506001600160a01b031663a9059cbb336108ce64e8d4a5100085610b5d565b6040516001600160e01b031960e085901b1681526001600160a01b03909216600483015260248201526044016020604051808303816000875af1158015610919573d6000803e3d6000fd5b505050506040513d601f19601f8201168201806040525081019061093d9190610b97565b508254825460405163a9059cbb60e01b815233600482015260248101919091526001600160a01b039091169063a9059cbb906044016020604051808303816000875af1158015610991573d6000803e3d6000fd5b505050506040513d601f19601f820116820180604052508101906109b59190610b97565b50600483015460018301556000825582546040518281526001600160a01b039091169033907ff6f06b1583d42638552b8ef39566e97d405a8f79da714ac9d6b044a6988121ae9060200161073e565b80356001600160a01b0381168114610a1b57600080fd5b919050565b60008060408385031215610a3357600080fd5b610a3c83610a04565b946020939093013593505050565b600060208284031215610a5c57600080fd5b610a6582610a04565b9392505050565b60008060408385031215610a7f57600080fd5b50508035926020909101359150565b60008060408385031215610aa157600080fd5b82359150610ab160208401610a04565b90509250929050565b600060208284031215610acc57600080fd5b5035919050565b634e487b7160e01b600052601160045260246000fd5b600060018201610afb57610afb610ad3565b5060010190565b60208082526022908201527f6f6e6c792067616d626c696e6720636f6e74726163742063616e20646f207468604082015261697360f01b606082015260800190565b600060208284031215610b5657600080fd5b5051919050565b600082610b7a57634e487b7160e01b600052601260045260246000fd5b500490565b60008219821115610b9257610b92610ad3565b500190565b600060208284031215610ba957600080fd5b81518015158114610a6557600080fd5b6000816000190483118215151615610bd357610bd3610ad3565b500290565b600082821015610bea57610bea610ad3565b50039056fea2646970667358221220637d7afdd6eafc8568e6323b49dc8a60ef21d4f6d12fc32de5cdf8f4b1e74ba264736f6c634300080d0033",
  "linkReferences": {},
  "deployedLinkReferences": {}
}